:020000041000EA
:1000000000200008EB0000100D0000004D01001062
:1000100000000000000000000000000000000000E0
:100020000000000000000000000000004901001076
:10003000000000000000000049010010490100100C
:100040004901001049010010490100104901001048
:100050004901001049010010490100104901001038
:100060004901001049010010490100104901001028
:100070004901001049010010490100104901001018
:1000800010B5064C2378002B07D1054B002B02D06E
:10009000044800E000BF0123237010BDB003000836
:1000A000000000000C150010044B10B5002B03D00D
:1000B0000349044800E000BF10BDC0460000000036
:1000C000B40300080C1500100230800803D0013082
:1000D0000238FCD1C046C0467047EFF3108072B6BC
:1000E000704780F3108870477047FFF7FDFF72B6C6
:1000F0000F4C104DAC4209DA21686268A368043BDA
:1001000002DBC858D050FAE70C34F3E70A490B4A2F
:100110000020521A02DD043A8850FCDC08480949E4
:100120000860BFF34F8F00F0F9FE00F0A9FEFEE774
:100130001815001030150010B0030008C80500089D
:100140000000000808ED00E0FEE7FEE700B504202F
:100150007146084202D0EFF3098002E0EFF3088015
:10016000043000F08DFCFEE7014B18607047C0467C
:10017000C4050008044B1B681A00BA3212881B6AB7
:100180005043C0187047C046C40500081D4B984234
:100190000FD010D840282FD005D8002830D01028F4
:1001A00028D019481EE0802828D080235B00984280
:1001B000F7D1144816E0154B984214D008D8A02364
:1001C0001B0698421CD0124B9842EAD1A0200BE0AB
:1001D000104B98420AD0104B984209D00F4B9842CE
:1001E000DFD10F487047A420C003FBE70D48F9E7B3
:1001F0000D48F7E70D48F5E70D48F3E70D48F1E73F
:100200000020EFE706005200FF005200010000F05E
:10021000090000A0040000F0050000F0030000F059
:100220000100520002005200030052000100500081
:10023000020050000500520010B50020FFF79AFFA1
:100240000A4B1C682300BC331B68C0180368002BD2
:100250000ADB074B1868FFF799FF012263689A6071
:100260009A68002AFCD110BD0248FCE7C4050008CA
:10027000CC03000802005000064B1B68BC331B680F
:10028000C3181B68002B03DA89B241600020704755
:100290000148FCE7C405000801008A000368002B40
:1002A00004DA89B2C2608160002070470048FCE730
:1002B00001008A00064B1B68BC331B68C3181B680F
:1002C000002B03DAC36800200B6070470148FCE78D
:1002D000C405000801008A00024B1A68002A00D1F8
:1002E00018607047E0030008F0B52C246043154CFB
:1002F0001F0024681D0A2018FF2425402740124CA7
:100300001B0C26680760346A45608360BA363688FD
:1003100077433F1907612F0080376D017F01E7198F
:1003200064190A4D47611F043B436419236000238D
:100330008361059BC2610162002B01D01B88838110
:10034000F0BDC046E0030008C40500080810000026
:10035000F0B5836885B002AD2B800368066A173359
:100360006B804368476A0095826AC16A0400039300
:100370000369C068FFF7B8FF00213B000A00009145
:100380003000FFF7B1FF216B280000F02DFB0022A9
:10039000AB5E002B06DB1F2213401E3A9A4013006F
:1003A000014A136005B0F0BD00E100E0F7B52C256F
:1003B000134C684326686943341825690193711802
:1003C000002D19D08869002818D12E68002E15DA62
:1003D0006768012426004B689E40B44613689EB2AD
:1003E00063461B041E431660EA608C61BC40019B9F
:1003F000A4B24B62AC60FEBD0248FCE70248FAE7DB
:10040000E003000804028A0007028A0073B5002690
:1004100042690400D56801962B0CB34221D01B041D
:1004200013601368194B00691B68BC331B68C31841
:100430001B68B34215DA01A9FFF73CFFB0420CD1AB
:100440000198E26903681E0CDBB29A4205D9226A60
:100450009B009B58002B00D0984731002069FFF784
:100460000BFFADB2002D09D063691D6000251B682C
:10047000636AAB4205D098476562A56163691B68F2
:1004800073BDA36A002BF8D09847F6E7C4050008AF
:100490002C2310B54343034A1068C018FFF7B6FF7A
:1004A00010BDC046E0030008F8B5194B0F001B68EB
:1004B0001A0033321278824227D9002925D01F250D
:1004C0000A68154021D11900BA310C88114E6043D9
:1004D0001C6AD208041929007868346000F07EFF95
:1004E00029002000FFF7C8FE3A0029003068FFF716
:1004F000D5FE041E07D101003068FFF7BDFE0300E2
:100500002000002B00D00448F8BD0448FCE7C0469A
:10051000C4050008E403000801018A0003018A0001
:1005200010B5002A0DD1002914D10B4B1A68130005
:10053000BA331B885843136AC018084B1860080068
:1005400010BD002906D0064B196019005A60FFF74C
:10055000ABFFF5E70348F3E7C4050008E403000830
:100560007803000803018A00F7B5184F04003B68C0
:100570000191DE683368834226D90025A94202D161
:10058000FFF7ABFD050038680368002B1ADA1F225D
:1005900001232240934064097268A4001419226860
:1005A00013420DD09A43226000240021FFF764FE1D
:1005B000019B002B02D12800FFF793FD2000FEBD18
:1005C000034CF2E7034CF3E7034CF7E7E4030008BE
:1005D000020188000301880004018A000A4B1B689D
:1005E000DB681A6882420DD959681F2342091840F6
:1005F0001E3B8340920050581840431E9841034BC5
:10060000C01870470248FCE7E403000800018800B6
:1006100004018A00054B1B681A0088321B681268A7
:100620009B181868000AC0B27047C046C40500088D
:10063000044B1B681A0088321B6812689B181868E4
:10064000000E7047C4050008024B18694007C00F30
:100650007047C04600002740A6220549D2008B58AB
:100660000220DB439B0702D00123885818407047C3
:100670000000264010B5FFF7EFFF0023022801D14C
:10068000014B1B68180010BDEC030008094A8300E9
:100690009B18D0229200985807221040042807D1B6
:1006A000C022920098581F23034080204000184326
:1006B0007047C0460000264010B5FFF7E7FF02284C
:1006C0001CD005D8002824D0012814D0002014E024
:1006D0001223FF33984214D01423FF33984215D0CD
:1006E000033B9842F2D10C4A0C4BD358002BEDDA65
:1006F0008020000201E00A4B186810BDFFF7BAFF26
:10070000FBE7FFF7A1FF0028E0D0F1E7024A054B25
:10071000EBE70548F1E7C046000026400C05000065
:10072000E80300083C05000000127A00B023154AD7
:10073000DB00D35810B59903DB01DB0F890BC371C4
:10074000114B0160D3580F24D904DB01DB0D038169
:10075000B123DB00D358C90C81801900214081727C
:1007600019092140C172D9029B009B0F8373074B6B
:10077000C90CD35881815A05DB01520FDB0D827100
:10078000038210BD00002640840500008C05000097
:1007900010B5104B421E1B683F331B78934216D98D
:1007A0007F221F248030FF300B4B8000C3581A403B
:1007B0000A701A0C2240180A8A701A012040E2407E
:1007C000487000209B009B0FCA700B7110BD03483E
:1007D000FCE7C046C40500080000264001004A00AE
:1007E000F0B589B003AC14220021200000F0F6FD22
:1007F0002000FFF79BFFB0231A4ADB00D2580023EA
:100800009A4203DAA37B023B5A1E9341E579002604
:100810006A1E95410135B34221D0A488B4421ED04E
:10082000039B30000193FFF747FF2A0033000700C6
:100830003100200000F0BCFC0C0005003300019AE0
:100840003100380000F0B4FCE6076A083243630860
:10085000801859412A00230000F08AFC060030006D
:1008600009B0F0BD00002640F0B50026244B85B04D
:100870001B6807003F331B78B3423ED0B0423CD0E8
:1008800083423AD30522310002A800F0A7FD02A955
:100890003800FFF77DFF3B008033FF33194A9B0090
:1008A0009B58B34229DA02AB1B79022B25D002AB4D
:1008B0005C78B44221D09D78B5421ED01B783800B8
:1008C0000193FFF7F9FE2A003300070031002000F2
:1008D00000F06EFC0C0005003300019A3100380076
:1008E00000F066FCE6076A08324363088018594145
:1008F0002A00230000F03CFC0600300005B0F0BDEB
:10090000C40500080000264010B5041E04D1FFF7FE
:1009100067FF002806D008E0064B1B683F331B78B2
:10092000834203D22000FFF7C7FE10BDFFF79CFFF4
:10093000EFE7C046C4050008E02210B50124094BCA
:1009400080009200C018835880589B069B0F9C40E3
:100950000F231840FFF7D8FF63081818210000F094
:100960007BFB10BD00002640144B30B51A680724ED
:1009700013002C331B781F2B15D883081D00A543AB
:100980002C1E0FD103342040A040814012689B00F0
:100990002032D3180A00FF2181401C6862401140B8
:1009A0006140196030BD802320401B06184380231E
:1009B0009B011268C91889008850F3E7C405000834
:1009C000064B9A680300064810339B00824202D10E
:1009D000985899507047034AD058FBE700ED00E063
:1009E0000000000800000010F8B506000D00002807
:1009F0003AD00023C05E002828DB7188FFF7B4FFDF
:100A00000024FF22032794460023F05E716883B21E
:100A10001F40FF006646BA4089013140D243B940C9
:100A2000002815DB114E83089B009B19C026B600D9
:100A30009F593A40114399510D4B9A680D4B9A4278
:100A400002D12900FFF7BCFF2000F8BD0A4CD8E70F
:100A50000F263340083B064E9B089B009B19DE691E
:100A600032401143D961E7E7034CEDE700E100E0D4
:100A700000ED00E00000000801005600FEE7000065
:100A800002680A4B10B51A6042685A6082689A6020
:100A9000C268DA6002691A6142695A6182699A61C0
:100AA000C269DA61FFF7EAFF10BDC0469003000893
:100AB000B0235B055A782120002A01D05878C0B2B3
:100AC0007047B0235B059A89002A02D0988980B2CA
:100AD000704780204000FBE77FB5274B86000D0064
:100AE000F458042901D0012927D100200FE0A36880
:100AF0002B420BD1E36829001A685B6802920193CC
:100B0000039302A8236898471C4B1C606469002C5F
:100B10000BD01B4B9842EAD1012DE8D1174B184856
:100B20001A68184B9A5104B070BD012DFBD1144BBB
:100B30009842F3D0134B9C51F5E7022906D10F4B95
:100B40001B68181EEFD01C6903E01C006369002BB2
:100B5000FBD10020002CE6D0A3682B4209D1E3682A
:100B600029001A685B6802920193039302A8236824
:100B700098472469EEE7C046300400082C040008BA
:100B8000FF004200180400081A4B1B681900883146
:100B90001A68096851180968016219008C310968DE
:100BA0005218126842621A0046321278002A1FD088
:100BB0009A68E0321268D2061AD5F222DB68D201B6
:100BC0009A580260F022D2019A5842600A4A9A5812
:100BD00082600A4A9A58C260094A9A580261094AD0
:100BE0009A584261084A9A588261084A9B58C361E0
:100BF0007047C046C405000804780000087800006B
:100C00000C780000107800001478000018780000BC
:100C10001A4B1B681A008832196812688A18016A10
:100C200011601A008C32196812688A18416A1160C2
:100C30001A0046321278002A1ED09A68E0321268F2
:100C4000D20619D5F0224168DB68D201995081683B
:100C50000B4A9950C1680B4A995001690A4A995048
:100C600041690A4A99508169094A9950C169094AFA
:100C700099500168E83299507047C046C405000891
:100C800004780000087800000C780000107800005C
:100C90001478000018780000F7B50700FFF708FF88
:100CA000664D06006B68002B00D07DE0FFF715FA5B
:100CB0006B680090002B00D089E0614C2268130023
:100CC000BA33198807234B43126A9B181A68002A03
:100CD000FCDADB68DA0021D51B0F1B0759480193AA
:100CE000FFF752FF5849212E00D075E0226890206E
:100CF000130088331C68136800011C1923680B401B
:100D00000343236013008C3312681B68D3181A68DE
:100D10001140084318604B4B019A13438022484E00
:100D20009205316813430A00BA3210880722002462
:100D30004243096A5218D36054605368FFF7C1FEFA
:100D400080235B0098425DD1380000F05DFB326883
:100D50001300BA33198807234B43126A9B181A6889
:100D6000002AFCDADF68FB0003D538010009FFF731
:100D70004FFF364B32681F401300BA3319880723E0
:100D80004B43126A00989B180022DF605A60FFF7FD
:100D9000A8F9002C0FD16B68002B03D0082101208B
:100DA000FFF79AFE2000FEBD01210800FFF794FE28
:100DB000041E00D17AE76B68002B03D002210120CA
:100DC000FFF78AFE224B9C42ECD0224CEAE704213A
:100DD0000120FFF781FE70E720688022030088333E
:100DE0001C68036852001C1923680B4013432360DE
:100DF00003008C3300681B68C318186801400A435D
:100E00001A6088E733681A00BC32196A12685218EF
:100E10001168002910DBBA331B889A181368002B5D
:100E20000ADB04230C4A11690B431361012F01D023
:100E300030BF8CE720BF8AE7054C88E73004000804
:100E4000C4050008F0030008FF00FFFFFFFFFFDFFD
:100E500005004200FF00420000ED00E0C0228020BB
:100E6000064952008B58C0059B009B0803438B50DA
:100E7000802388581B0603438B5070470000264090
:100E800010B562B6034800F0C1F80020FFF704FF78
:100E9000FBE7C0460020001010B50020FFF7F8FA6D
:100EA00010BD704710B50020FFF746FD041E25D089
:100EB000134B1860FFF7BCFB411C200000F0CCF87E
:100EC000104B04001860FFF7A5FB411C200000F048
:100ED000C3F80D4B441E18600C49200000F0BCF80C
:100EE000FA210B4B013018708900200000F0B4F893
:100EF000084B01301860084BC003186010BDC04695
:100F000084000008880000088000000840420F00AC
:100F100094000008900000088C00000810B52048DC
:100F2000FFF722F9B022E02130201E4CD200A35856
:100F300089005B005B08A3506358834363508023A0
:100F40005B04A350184B194AE250A02204339201CB
:100F5000E250FF22164BE250FFF780FFC022012132
:100F60005200A3588B43A350FFF79BFFFFF79AFF54
:100F7000104B03201A681300BA33198807234B4318
:100F8000126A80219B180022DA605A600A4AFFF731
:100F9000C7FA0A48FFF7A0F90948FFF7D9F910BDC9
:100FA0001814001000002640840500000100020013
:100FB0008C050000C40500088003000844040008F4
:100FC000D81400109023034A5B01D0580323184023
:100FD0007047C0460000204010B59024FFF77DF810
:100FE000074B64011A5907491140074A0A431A512D
:100FF000102259681142FCD0FFF773F810BDC046AB
:1010000000002040FCFF00000100FA05F8B5902523
:101010000E4C6D010700FFF760F863590600DB43D3
:101020009B0701D1FFF7D8FF80239B00E75063594E
:10103000074A1A40074B13436351102362681A4250
:10104000FCD03000FFF74DF8F8BDC046000020404E
:10105000FCFF00000300FA05002243088B4274D312
:1010600003098B425FD3030A8B4244D3030B8B42A9
:1010700028D3030C8B420DD3FF22090212BA030CB2
:101080008B4202D31212090265D0030B8B4219D393
:1010900000E0090AC30B8B4201D3CB03C01A5241B3
:1010A000830B8B4201D38B03C01A5241430B8B42FB
:1010B00001D34B03C01A5241030B8B4201D30B03E4
:1010C000C01A5241C30A8B4201D3CB02C01A52410B
:1010D000830A8B4201D38B02C01A5241430A8B42CE
:1010E00001D34B02C01A5241030A8B4201D30B02B7
:1010F000C01A5241CDD2C3098B4201D3CB01C01AD1
:10110000524183098B4201D38B01C01A52414309DA
:101110008B4201D34B01C01A524103098B4201D3C8
:101120000B01C01A5241C3088B4201D3CB00C01A35
:10113000524183088B4201D38B00C01A52414308AD
:101140008B4201D34B00C01A5241411A00D20146D2
:10115000524110467047FFE701B5002000F006F845
:1011600002BDC0460029F7D076E770477047C046F9
:10117000002B11D1002A0FD1002900D1002802D064
:101180000021C943081C07B4024802A1401802907C
:1011900003BDC046D9FFFFFF03B4684601B50298FE
:1011A00000F030F8019B9E4602B00CBC7047C04670
:1011B000F0B5CE46474615042D0C2E0080B5070429
:1011C000140C3F0C9946030C7E435D436743634315
:1011D0007F19340CE4199C46A54203D980235B0295
:1011E0009846C4444B4643435143250C360465445A
:1011F000360C2404A4195B19591820000CBC904625
:101200009946F0BDF0B54F464646D646C0B50400F7
:1012100082B00D00914698468B422FD82CD0414683
:10122000484600F0CFF829000600200000F0CAF878
:10123000331A9C46203B9A4600D576E04B465246F0
:1012400093401F004B46624693401E00AF4228D891
:1012500025D05346A41BBD41002B00DA7BE00022C1
:1012600000230092019301235246934001930123EE
:1012700062469340009318E08242D0D900220023B6
:10128000009201930A9B002B01D01C605D600098C6
:10129000019902B01CBC90469946A246F0BDA342FB
:1012A000D7D900220023009201936346002BE9D096
:1012B000FB079846414672080A437B0866460EE0E3
:1012C000AB4201D1A2420CD8A41A9D41012024199D
:1012D0006D410021013E24184D41002E06D0AB4245
:1012E000EED9013E24196D41002EF8D100980199E4
:1012F000534600196941002B23DB2B005246D34093
:101300002A006446E2401C0053461500002B2DDBEA
:1013100026005746BE40330026006746BE403200D6
:10132000801A994100900191ACE7624620239B1AF4
:101330004A46DA406146130042468A4017001F437E
:1013400080E7624620239B1A2A0066469A402300C3
:10135000F3401343D4E76246202300219B1A002266
:10136000009101920122DA40019280E72023624637
:1013700026009B1ADE402F00B0466646B740464620
:101380003B003343C8E7C0461C2101231B0498429D
:1013900001D3000C10391B0A984201D3000A083906
:1013A0001B09984201D30009043902A2105C4018BD
:1013B0007047C04604030202010101010000000061
:1013C0000000000010B5002903D1FFF7DDFF203039
:1013D00002E0081CFFF7D8FF10BDC046030012183A
:1013E000934200D1704719700133F9E7F8B5C04650
:1013F000F8BC08BC9E467047F8B5C046F8BC08BCAF
:101400009E4670470000000001B40248844601BCBB
:10141000604700BF61020008000020400000244037
:1014200000000040000000000000234000003040A9
:101430000000314000009F400000224000001040AA
:1014400000009D402020202020101010101D1D8025
:1014500017007500FF030602060036041020000086
:101460007FC0000000040000000000000019324BA3
:10147000647D0000000000804000080B10000000A8
:101480000000FF012002001F00800004FF08101868
:10149000001000140018001C4044484C500000008C
:1014A0000810000008000000040000000410000004
:1014B00000120000042100000021000000160000BE
:1014C00040114002C41300138013A013401388136B
:1014D000A81320001C000000030000000100000011
:1014E000010000000000000005036000040000008F
:1014F0000100000000000000010000000604600080
:1015000008000000A4050008990E0010000000006B
:10151000F4FCFF7F01000000000000100000000844
:10152000800000003815001080000008F80200005C
:10153000B00300081802000000093D0000127A0004
:1015400000093D000000D007A00F000004000000CB
:10155000A90000108100001080B230B5C00020D07A
:10156000104B07221C682300BA331B885A43236A96
:10157000D31819680029FCDA3E210B4B06251960A7
:101580000A4B0B491960A3210A4BC9005D500A4957
:1015900058505858206A1218002050605A58002A93
:1015A000FCDA30BDC40500080401264008012640CD
:1015B0001E1F0000000026401C05000010B54378E7
:1015C000FF2B11D100F01CF90400032000F008F9F2
:1015D000C3685A68012311681943116011681942E0
:1015E000FCD1200000F0DCF810BDF7B50090002021
:1015F000019100F0F5F83F4D06002B681A005033BA
:10160000BC3214681B780419002B5AD000F0F0F893
:10161000070003281BD000F0F3F8374A374B0500CA
:10162000D358002B3EDA364A0121300000F0F0F8A2
:10163000002837D10198FFF78FFF009B002B3ED089
:101640002368002BFCDB00F0BBF804002BE0062035
:1016500000F0C6F82B68BC331B68C0180368002B69
:1016600002DA284C2000FEBD002000F0A1F8264B35
:101670009842F6D00023254A19001268012000F094
:10168000A7F80025A842ECD1002000F091F81E4AEE
:101690001F4B904203D09D42E3D00135F4E79D42B9
:1016A000B9D1DEE7174C032F05D10121002000F04E
:1016B000B7F80028F9D1280000F072F8D2E7154CED
:1016C000F1E700F09DF80E4A05000121300000F01E
:1016D0009FF8002809D1009B002B08D02368002B1D
:1016E000FCDB00F06DF80400E5E7064CE3E7094C8D
:1016F000E1E7C046C4050008000026401C050000C4
:10170000CC0300080500520001018800DC0300083A
:10171000F049020001005000184BF7B51B68184A49
:101720005C68042311690B431361012824D030BF86
:101730002300FC331B69002B1DD1A320114B124940
:10174000124AC0000F681E5815680195104D0D60B3
:1017500006251D503E2010600E483E351D501D5878
:10176000002DFCDA0C48FC3420610F60A321C90075
:101770005E50019B1360F7BD20BFD9E7C405000888
:1017800000ED00E00000264008012640040126404C
:101790001E1F00001C050000AAAAAAAA0000000043
:1017A00001B40248844601BC604700BFE30000105A
:1017B00001B40248844601BC604700BFDD0500104B
:1017C00001B40248844601BC604700BF39020010E2
:1017D00001B40248844601BC604700BFAD0300105D
:1017E00001B40248844601BC604700BF7501001087
:1017F00001B40248844601BC604700BFC50F001019
:1018000001B40248844601BC604700BFDB00001001
:1018100001B40248844601BC604700BF9D0200102D
:1018200001B40248844601BC604700BF690500104E
:1018300000000000000000000000000000000000A8
:081840000000000000000000A0
:1020000000F80F086D0101100D000000F1740010C0
:10201000E1010110E1010110E101011000000000E7
:10202000000000000000000000000000DD010110C1
:10203000DD0101100000000033740010DD0101100B
:10204000DD010110DD010110DD010110DD010110D4
:10205000DD010110DD010110DD010110DD010110C4
:10206000DD010110DD010110DD010110DD010110B4
:10207000DD010110DD010110DD010110DD010110A4
:1022E00010B5054C237833B9044B13B10448AFF350
:1022F00000800123237010BDB82D000800000000ED
:1023000004400210084B10B51BB108490848AFF350
:1023100000800848036803B910BD074B002BFBD0B1
:10232000BDE81040184700BF00000000BC2D0008A9
:1023300004400210E42B00080000000080B400AF4D
:10234000034B1B681846BD465DF8047B704700BF11
:10235000D42D000880B582B000AF1B4B1B68002B4A
:1023600002D0194B1B68984705F04CF87860174B62
:102370001B680133154A136003F0C8FF38603B68DF
:102380005B6D5A1E3B685A653B685B6D002B12D132
:102390003B681A6D3B685A653B6893F8343043F0EC
:1023A0000803DAB23B6883F83420786805F02EF829
:1023B00003F08CFC02E0786805F028F804F090FE49
:1023C00000BF0837BD4680BDD82D0008D42D0008B9
:1023D00080B400AF00231846BD465DF8047B70470B
:1023E00080B400AF00231846BD465DF8047B7047FB
:1023F00080B400AF00231846BD465DF8047B7047EB
:1024000080B400AF00231846BD465DF8047B7047DA
:1024100080B582B000AF084B7B6005E07B681B682D
:1024200098477B6804337B607B68044A9342F5D30A
:1024300000BF0837BD4680BD6C40021074400210DA
:1024400080B582B000AF084B7B6005E07B681B68FD
:1024500098477B6804337B607B68044A9342F5D3DA
:1024600000BF0837BD4680BD744002108440021092
:1024700080B500AF00F036F80023184680BD00BFDD
:1024800080B582B000AF7860FFF7DAFF1CF0CEFBBA
:1024900000BF0837BD4680BD80B584B002AF1423AD
:1024A00001930A2300934FF40063002209490A486C
:1024B00003F0F0FF78607B68002B04D1D622074937
:1024C000074802F0C7FD786803F02CFF00BF08370B
:1024D000BD4680BD8124001034FA01104CFA011071
:1024E0003CFA011080B500AF04F08CFF1BF0FCFB40
:1024F00001F042FF04F038FF03F0A6FBFFF7CCFF2A
:1025000004F04CFF00F0C8FA03F0C2FB00231846A9
:1025100080BD00BF80B584B000AFF860B9601346DD
:10252000FB80FB68002B02D14FF0FF3318E0B86846
:1025300000F01AF80346002B02D04FF0FF330FE0F3
:10254000FB68BA680921184603F0D6F8FB68FA88D8
:10255000DA82FB6800229A76FB6800221A83002345
:1025600018461037BD4680BD80B582B000AF786098
:102570000921786803F032FA034618460837BD4649
:1025800080BD00BF80B584B000AF78600023FB60E1
:102590007B68002B04D1AB221449154802F05AFD88
:1025A0007B685B6A002B1BD07B68DB8A03F010031F
:1025B000002B15D17B685B6A78689847F860FB68E8
:1025C000002B06D07B68FA6819460A4802F0FEFB29
:1025D00006E07B68DB8A43F010039AB27B68DA82FC
:1025E000FB6818461037BD4680BD00BF54FB011084
:1025F00060FA011008FB011080B584B000AF78606C
:102600000B467B800023FB607B68002B04D1D0222B
:102610004349444802F01EFD7B68184603F0C4F9A4
:102620000346092B04D0D1223D493F4802F012FD58
:102630007B68DB8A03F01003002B1AD17B685B6A8E
:10264000002B0FD07B685B6A78689847F860FB685E
:10265000002B07D07B68FA681946344802F0B6FBB5
:10266000FB6859E07B68DB8A43F010039AB27B6811
:10267000DA827B68DB8A03F00803002B08D07B68D2
:102680001B8B03F00803002B02D06FF0060343E01E
:102690007B681B8B03F00803002B0AD07B681A8B26
:1026A0007B8853409BB21A4640F60F731340002BB1
:1026B00013D07B689B6A002B07D07B689B6A7A8863
:1026C000114678689847F86007E07B8823F0F003AC
:1026D0001B051B0D9AB27B681A83FB68002B03D085
:1026E000FB6813F1060F16D17B681B8B43F00803C0
:1026F0009AB27B681A837B689B7E0133DAB27B686F
:102700009A767B689B7E002B05D140F20312044928
:10271000074802F09FFCFB6818461037BD4680BD95
:1027200064FB011060FA011070FA011008FB01103F
:1027300040FB011080B584B000AF78600023FB60DF
:102740007B68002B05D14FF48B721E491E4802F0A6
:1027500081FC7B68184603F027F90346092B05D056
:1027600040F217121749194802F074FC7B689B7EEF
:10277000002B02D14FF0FF331FE07B689B7E013BB3
:10278000DAB27B689A767B689B7E002B01D00023AF
:1027900013E07B68DB6A002B04D07B68DB6A786817
:1027A0009847F860FB68002B03D0FB6813F1060F15
:1027B00002D17B6800221A83FB6818461037BD4699
:1027C00080BD00BF74FB011060FA011070FA0110A7
:1027D00090B585B000AFF860B9607A603B60FB6887
:1027E000002B05D14FF4A2721849194802F032FCAF
:1027F000FB68184603F0D8F80346092B05D040F2D1
:1028000045121249134802F025FCFB689B7E002B01
:1028100005D14FF0FF3001F079FC002311E0FB6897
:102820001B6B002B08D0FB681C6B3B687A68B9688F
:10283000F868A047034604E06FF0050001F066FC6D
:10284000002318461437BD4690BD00BF84FB01101D
:1028500060FA011070FA011090B585B000AFF86011
:10286000B9607A603B60FB68002B05D140F26F12C3
:102870001849194802F0EEFBFB68184603F094F87B
:102880000346092B05D04FF4B8721249134802F0E1
:10289000E1FBFB689B7E002B05D14FF0FF3001F080
:1028A00035FC002311E0FB685B6B002B08D0FB6854
:1028B0005C6B3B687A68B968F868A047034604E037
:1028C0006FF0050001F022FC002318461437BD46C6
:1028D00090BD00BF94FB011060FA011070FA011066
:1028E00080B582B000AF786039607B68002B05D17D
:1028F00040F2AF120C490D4802F0ACFB7B68184661
:1029000003F052F80346092B05D04FF4D87206495C
:10291000074802F09FFB7B683A68DA61002318469B
:102920000837BD4680BD00BFA4FB011060FA01104E
:1029300070FA011080B483B000AF786039607B68B2
:102940001B683A685A607B681A683B681A607B6843
:102950003A681A603B687A685A6000BF0C37BD4617
:102960005DF8047B704700BF80B483B000AF78602F
:102970007B681B687A6852685A607B685B687A6813
:1029800012681A607B687A685A607B685A687B684C
:102990001A6000BF0C37BD465DF8047B704700BF6E
:1029A00080B582B000AF78607B6814331946034865
:1029B000FFF7C0FF00BF0837BD4680BDE02200081A
:1029C00080B584B000AF0023FB600D4BBB60BB68DB
:1029D0001A68BB689A420ED0BB681B68143BFB6048
:1029E00004F010FD7860FB6814331846FFF7BCFF55
:1029F000786804F00BFDFB6818461037BD4680BDB3
:102A0000E022000880B584B000AFFFF7D9FFF8607E
:102A1000FB68002B1FD0FB68D3F88430BB60F868DC
:102A200002F0A4FF78607B68012B02D1F86802F005
:102A3000C5FEBB68002B02D0BB68F86898477B686E
:102A4000002BE2D1FB689B6A184602F0CDFAF868C9
:102A500002F04EFFD9E700BF00BF1037BD4680BD72
:102A600080B584B000AF78600023FB600CE0094AB9
:102A7000FB6852F82330BB60BB68002B01D0BB68F9
:102A80009847FB680133FB60FB68032BEFD9FFF726
:102A9000B9FFE9E7682F000880B588B004AF0023CC
:102AA000FB6028E0381DFB68164A082102F032F965
:102AB000FB688C2202FB03F3134A9818FB681B0285
:102AC000124A1344391D202203921F2202924FF40E
:102AD00080720192009300230D4A03F0DFFBFB6834
:102AE0008C2202FB03F3084A1344184603F01AFC35
:102AF000FB680133FB60FB68002BD3D000BF1037AD
:102B0000BD4680BDC0FB0110DC2D0008682E00080A
:102B1000612A001080B483B000AF78607B687A6867
:102B20005A607B685A687B681A6000BF0C37BD46E4
:102B30005DF8047B704700BF80B483B000AF78605D
:102B400039607B681B683A685A607B681A683B6822
:102B50001A607B683A681A603B687A685A6000BFFE
:102B60000C37BD465DF8047B704700BF80B483B06E
:102B700000AF786039607B685B683A681A607B6890
:102B80005A683B685A607B683A685A603B687A6862
:102B90001A6000BF0C37BD465DF8047B704700BF6C
:102BA00080B483B000AF78607B681B687A68526835
:102BB0005A607B685B687A6812681A607B687A681A
:102BC0005A607B685A687B681A6000BF0C37BD4644
:102BD0005DF8047B704700BF80B483B000AF7860BD
:102BE0007B681A687B689A420CBF01230023DBB222
:102BF00018460C37BD465DF8047B704780B582B03F
:102C000000AF78607B6814331846FFF783FF00231A
:102C100018460837BD4680BD80B588B000AFF86063
:102C2000B9603B601346FB71BB6893F8343003F026
:102C30000403002B09D13968B86803F047FEB86176
:102C4000BB69002B01D0BB693FE0FB79002B02D0B0
:102C5000012B07D031E0BB6814331946F868FFF741
:102C600085FF31E0FB681B68FB6117E0FB69143BE3
:102C70007B61BB6893F835207B6993F835309A42C5
:102C800009D27B6903F11402BB681433194610465C
:102C9000FFF76CFF06E0FB691B68FB61FA69FB68E4
:102CA0009A42E3D1FA69FB689A420CD1BB681433AB
:102CB0001946F868FFF75AFF05E0B22205490648B1
:102CC00002F0C8F900E000BF002318462037BD46D7
:102CD00080BD00BFEC000210C8FB011080B584B0BD
:102CE00000AF78607B681B68143BFB60FB680022C8
:102CF0001A63F86803F058FE002318461037BD46E3
:102D000080BD00BF80B584B000AFF860B9607A6064
:102D1000FB70FB68002B05D140F23B1217491848A5
:102D200002F098F97B68B3F5803F05D34FF49E72AB
:102D30001249144802F08EF9FB78002B08D0FB787A
:102D4000012B05D040F23D120C490F4802F082F9E8
:102D5000FB68BA680221184602F0CEFCFB681846F0
:102D6000FFF74CFF7B689AB2FB689A83FB68FA789E
:102D70005A72002318461037BD4680BDD00002109D
:102D8000CCFB0110DCFB0110F0FB011080B58CB016
:102D900000AFF860B9607A60FB68002B05D140F2A3
:102DA000F9126649664802F055F9FB68184602F0C8
:102DB000FBFD0346022B05D04FF4FD725F496148CD
:102DC00002F048F9604B1B68002B04D05E4B1B6877
:102DD000FA6810469847FB689B8B002B51D1BB6863
:102DE000002B4ED001F06EF9F86204F00BFBB862D4
:102DF00003F022F90346002B09D05049534801F053
:102E0000E5FF40F2FF124D49514802F023F9FB6AF9
:102E1000012B09D149494F4801F0D8FF40F2FF1278
:102E200046494B4802F016F904F0ECFA786203F0D8
:102E30006DFA0346002B09D14049474801F0C6FF0F
:102E400040F2FF123D49424802F004F904F0DAFA78
:102E5000386201F023F90346002B09D037493F4877
:102E600001F0B4FF40F2FF123449394802F0F2F8A1
:102E7000386A04F0CBFA786A04F0C8FAB86A04F049
:102E8000C5FA04F0BFFAF861FB689B8B002B09D0F0
:102E9000FB689B8B013B9AB2FB689A83F86904F04C
:102EA000B5FA3DE0BB68002B05D1F86904F0AEFA35
:102EB0006FF001033EE003F029FAB861BB696FF0DF
:102EC00008021A63FB6803F11400FB685A7A7B68F6
:102ED000B969FFF7A1FE78617B69002B04D0F8691E
:102EE00004F094FA7B6925E0BB68002B0CDDBB691C
:102EF000583307F108020021184604F059F8BB695D
:102F00005833184603F0F0FEF86904F07FFA02F037
:102F1000DDFEBB691B6B002B02D0BB691B6B09E09C
:102F20000F4B1B68002B04D00D4B1B68FA68104632
:102F30009847002318463037BD4680BDDC0002109C
:102F4000CCFB01102CFC0110CC52000808FD011034
:102F5000C8FB011034FD01105CFD0110A4FC011040
:102F6000C852000880B582B000AF78603960022294
:102F700039687868FFF70AFF034618460837BD46E8
:102F800080BD00BF80B584B000AF78607B68002B47
:102F900005D140F287222749274802F05BF87B6879
:102FA000184602F001FD0346022B05D04FF42272B1
:102FB0002049224802F04EF8214B1B68002B04D018
:102FC0001F4B1B687A68104698470023FB6004F08B
:102FD00019FAB8607B6814331846FFF7FDFD034605
:102FE000002B07D17B6814331846FFF777FE0123C7
:102FF000FB6012E07B689B8B4FF6FF72934206D01A
:103000007B689B8B01339AB27B689A8305E0B86832
:1030100004F0FCF96FF0020308E0B86804F0F6F978
:10302000FB68012B01D102F051FE00231846103736
:10303000BD4680BD00010210CCFB01102CFC01102C
:10304000C452000880B584B000AF78607B68143348
:103050001846FFF7C1FD0346002B09D17B685B6969
:10306000143BFB60FB6893F835207B685A7702E0DD
:103070007B68FF225A777B685B7F18461037BD4616
:1030800080BD00BF80B487B000AF786000237B6153
:103090000023FB607B6893F83630FB747B68DB6B46
:1030A0007B6115E07B69243BFB60FB685B7FFB7207
:1030B000FB681A7FFB7A934228BF1346FB72FA7CA7
:1030C000FB7A9A4201D9FB7AFB747B691B687B61AE
:1030D0007B6803F13C027B699A42E3D1FB7C184692
:1030E0001C37BD465DF8047B704700BF80B588B0D3
:1030F00000AFF8600B467A60FB7207F10B031A46CB
:103100000221F86803F028FBFB6893F8343003F0E1
:103110000403002B39D0FB685B6CFB61FB69002B5F
:1031200033D0F86902F040FC0346032B2DD1FB6934
:10313000BB61FB6814331846FFF732FDBB6903F12E
:103140001400BB695A7A7B68F968FFF765FD7861FE
:103150007B69002B18D1B869FFF774FFBB691B6A44
:103160001846FFF78FFF0346FB74BB691B6A93F891
:103170003530FA7C9A4208D0BB691B6AF97C7A68C0
:103180001846FFF7B3FF00E000BF2037BD4680BD03
:1031900080B584B000AFF860B9601346FB71FB687E
:1031A000002B05D140F269321349144801F052FF57
:1031B000FB68BA680321184602F09EFAFB681846BD
:1031C000FFF71CFDFB6800221A62FB68FF225A779A
:1031D000FB6800229A77FB68FF221A77FB6824338A
:1031E0001846FFF797FCFB6801225A720023184625
:1031F0001037BD4680BD00BF1001021094FD0110C4
:1032000080B586B000AF7860396000237B613B6891
:1032100014331846FFF7C4FC7B681B6A93F835200B
:103220003B6893F835309A4201D101237B617B687A
:1032300014331846FFF7D0FC0346002B09D17B68F6
:103240005B69143B3B613B6993F835207B685A7797
:1032500002E07B68FF225A777B69002B14D07B68E1
:103260001B6A1846FFF70EFF0346FB737B681B6A59
:1032700093F83530FA7B9A4206D07B681B6AF97B5B
:1032800002221846FFF732FF00BF1837BD4680BD47
:1032900080B58EB000AFF860B9607A6000F012FFC0
:1032A000F86204F0AFF8B86202F0C6FE0346002BE5
:1032B00009D0AB49AB4801F089FD40F29142A849E1
:1032C000A94801F0C7FEFB6A012B09D1A449A74810
:1032D00001F07CFD40F29142A149A34801F0BAFE01
:1032E00004F090F8786203F011F80346002B09D13E
:1032F0009B499F4801F06AFD40F2914298499A48E3
:1033000001F0A8FE04F07EF8386200F0C7FE034624
:10331000002B09D09249974801F058FD40F29142A4
:103320008F49914801F096FE386A04F06FF8786A88
:1033300004F06CF8B86A04F069F8FB68002B05D15A
:1033400040F2944286498C4801F084FEFB6818469E
:1033500002F02AFB0346032B05D040F29542804938
:10336000864801F077FE02F0D1FFF86104F04AF8D8
:103370007863834B1B68002B04D0814B1B68FA6871
:1033800010469847FB6900221A63FB681A6AFB69BA
:103390009A4210D1FB689B7FFF2B06D0FB689B7F76
:1033A0000133DAB2FB689A77C9E0786B04F02EF843
:1033B0006FF00203D0E0FB681B6A002B26D1FB688C
:1033C000FA691A62FB68FF225A77FB6801229A7732
:1033D000FB681B7FFF2B0FD0FB681A7FFB681B6A03
:1033E00093F835309A4207D2FB68186AFB681B7F56
:1033F0007A681946FFF77AFEFB6903F13C02FB6825
:10340000243319461046FFF797FB98E0BB68002B62
:1034100009D1FB696FF001021A63786B03F0F6FFC4
:103420006FF0010398E0FB6993F83530FB76FB6899
:1034300003F11400FB685A7A7B68F969FFF7ECFB2B
:1034400078617B69002B04D0786B03F0DFFF7B6928
:1034500082E0FA68FB695A64FB685B7FFA7E9A42F5
:1034600011D2FB68FA7E5A77FB685A7FFB681B6AA9
:1034700093F835309A4206D2FB681B6AF97E022225
:103480001846FFF733FEBB68002B0CDDFB69583391
:1034900007F108020021184603F08AFDFB69583342
:1034A000184603F021FC786B03F0B0FF02F00EFC2D
:1034B00003F0A8FF7863FB691B6B002B3FD0002350
:1034C0003B63FB681B6A93F83520FB6993F8353042
:1034D0009A4201D101233B63FB6814331846FFF77E
:1034E0007BFB0346002B09D1FB685B69143B3B6106
:1034F0003B6993F83520FB685A7702E0FB68FF22AE
:103500005A773B6B002B14D0FB681B6A1846FFF7F9
:10351000B9FD0346FB76FB681B6A93F83530FA7EEB
:103520009A4206D0FB681B6AF97E02221846FFF712
:10353000DDFD786B03F06AFFFB691B6B0CE0786BB9
:1035400003F064FF0F4B1B68002B04D00D4B1B686E
:10355000FA6810469847002318463837BD4680BDA4
:103560002001021008FD0110C8FB011034FD0110FC
:103570005CFD0110A4FC011094FD0110A8FD0110D8
:10358000CC520008C852000880B582B000AF786005
:103590003960022239687868FFF77AFE03461846D8
:1035A0000837BD4680BD00BF80B58AB000AF7860E7
:1035B0007B68002B05D140F283526B496B4801F0C8
:1035C00049FD7B68184602F0EFF90346032B05D04E
:1035D00040F284526449664801F03CFD00237B625E
:1035E00003F010FF386202F091FE0346002B09D170
:1035F0005D49604801F0EAFB40F289525A495E4851
:1036000001F028FD03F0FEFEF86100F047FD0346DF
:10361000002B09D05449594801F0D8FB40F2895297
:103620005149554801F016FDF86903F0EFFE386A7C
:1036300003F0ECFE02F06AFEB86103F0E3FE78618D
:103640004F4B1B68002B04D04D4B1B687A6810460B
:1036500098477B681A6ABB699A4209D0BB694FF0E8
:10366000FF321A63786903F0D1FE4FF0FF3376E042
:103670007B689B7F013BDAB27B689A777B689B7F94
:10368000002B63D17B6824331846FFF789FA7B68E7
:103690001B7FFF2B06D1BB6993F835207B685B7FCE
:1036A0009A420FD1FF23FB72B869FFF7EBFC034688
:1036B000FB7207F10B031A460221B86903F04CF8BC
:1036C00001237B627B6814331846FFF785FA0346B3
:1036D000002B35D17B685B69143B3B613B6914333C
:1036E0001846FFF75DFA7B683A691A627B68012227
:1036F0009A773B6903F13C027B68243319461046F4
:10370000FFF71AFA3B6900225A64386903F04CF952
:103710007B6814331846FFF75FFA0346002B09D184
:103720007B685B69143BFB60FB6893F835207B6822
:103730005A7702E07B68FF225A7701237B6205E01B
:103740007B6800221A627B68FF225A77786903F04F
:103750005DFE7B6A012B01D102F0B8FA0023184606
:103760002837BD4680BD00BF3001021094FD011016
:10377000A8FD01105CFD0110C8FB0110A4FC0110A4
:10378000C452000880B584B000AFF860B960134639
:10379000FB71FB68002B05D140F23C6212491348D3
:1037A00001F058FCFB79002B08D0FB79012B05D0E8
:1037B00040F23D620C490E4801F04CFCFB68BA68CF
:1037C0000421184601F098FFFB68FA795A72FB68E9
:1037D0001846FFF713FAFB680022DA610023184647
:1037E0001037BD4680BD00BF4401021060FE0110CD
:1037F000F0FB011080B588B000AF786039607B685D
:10380000002B05D140F2EC624E494F4801F022FCFA
:103810007B68184602F0C8F80346042B05D040F236
:10382000ED624849494801F015FC3B68002B02D184
:103830004FF0FF3382E000237B6103F0E3FD38614A
:103840007B68DA693B681A437B68DA61404B1B6826
:10385000002B04D03E4B1B687A68104698477B6863
:1038600014331846FFF7B8F90346002B5DD17B6887
:103870005B69FB6153E0FB69143BFB604FF0FF3376
:10388000BB61FB6893F84C3003F00103002B0BD0B5
:10389000FB689A6C7B68DB691A40FB689B6C9A42F8
:1038A00020D10023BB611DE0FB6893F84C3003F08E
:1038B0000203002B10D0FB689A6C7B68DB69134015
:1038C000002B0FD0FB689A6C7B68DB691A40FB68A1
:1038D0009A640023BB6105E0386903F097FD6FF03F
:1038E00009032BE0FB691B68FB61BB69002B16D148
:1038F000FB6893F84C3003F00403002B07D07B687F
:10390000DA69FB689B6CDB431A407B68DA61F86814
:1039100003F04AF8FB6800221A6301237B617B688D
:1039200003F11402FB699A42A5D1386903F06EFDD8
:103930007B69012B01D102F0C9F900231846203719
:10394000BD4680BD5401021060FE011074FE0110DE
:10395000C452000880B58CB000AFF860B9603B601D
:103960001346FB71FB68002B05D140F26E72914942
:10397000914801F06FFBFB68184602F015F803460A
:10398000042B05D040F26F728A498C4801F062FB2B
:1039900000F098FB786203F035FD386202F04CFBD2
:1039A0000346002B09D08349854801F00FFA40F205
:1039B00072728049834801F04DFB7B6A012B09D16B
:1039C0007C49814801F002FA40F2727279497D48DF
:1039D00001F040FB03F016FDF86102F097FC03468E
:1039E000002B09D17349794801F0F0F940F2727265
:1039F0007049744801F02EFB03F004FDB86100F03B
:103A00004DFB0346002B09D06A49714801F0DEF9ED
:103A100040F2727267496B4801F01CFBB86903F011
:103A2000F5FCF86903F0F2FC386A03F0EFFCBB68C0
:103A3000002B02D14FF0FF33B7E04FF0FF33BB62F2
:103A400002F064FC78617B696FF008021A63614BD5
:103A50001B68002B04D05F4B1B68FA681046984720
:103A600003F0D0FCF862FB7903F00103002B09D0CE
:103A7000FB68DA69BB681A40BB689A4216D100231A
:103A8000BB6213E0FB7903F00203002B08D0FB6854
:103A9000DA69BB681340002B08D00023BB6205E045
:103AA00040F291724349474801F0D4FABB6A002BB7
:103AB00022D17B6900221A63BB6B002B05D0FB6807
:103AC000DA69BB681A40BB6B1A60FB68DA69BB68CD
:103AD0001A407B699A647B69FA7983F84C20FB79F8
:103AE00003F00403002B52D0FB68DA69BB68DB43A8
:103AF0001A40FB68DA614AE03B68002B09D17B6918
:103B00006FF001021A63F86A03F080FC6FF00103A2
:103B10004BE07B69BA689A647B69FA7983F84C2038
:103B2000FB6803F11400FB685A7AFB6B7969FFF7B5
:103B300073F838613B69002B04D0F86A03F066FC27
:103B40003B6932E03B68002B0BDD7B6958333A461A
:103B50000021184603F02CFA7B695833184603F00D
:103B6000C3F8F86A03F052FC02F0B0F87B691B6BF3
:103B7000002B02D07B691B6B17E003F043FCF8625B
:103B8000BB6B002B03D07B699A6CBB6B1A60F86A25
:103B900003F03CFC104B1B68002B04D00E4B1B6841
:103BA000FA68104698477B691B6B18463037BD464C
:103BB00080BD00BF6401021060FE011074FE0110A0
:103BC00008FD0110C8FB011034FD01105CFD01105F
:103BD000A4FC0110CC520008C852000880B586B081
:103BE00002AFF860B9603B601346FB71FA790223BB
:103BF0000193BB6900933B68B968F868FFF7AAFEB8
:103C0000034618461037BD4680BD00BF90B587B04B
:103C100000AFF860B9607A603B60FB68002B05D1AB
:103C200040F665323549364801F014FA97F82C30E1
:103C3000002B09D097F82C30012B05D040F66632C6
:103C40002E49304801F006FAFB68BA68062118468A
:103C500001F052FDFB6897F82C205A72FB68184659
:103C6000FEF7CCFFFB687A68DA613B68073323F024
:103C700007043B689AB2FB681A8404F10803BA6A25
:103C8000B2FBF3F39AB2FB685A84FB685B8C002B9F
:103C900002D16FF009032DE0FB6800229A62FB68F5
:103CA0000022DA62FB6800221A6300237B6112E0C3
:103CB000FB68DA6904F10803796901FB03F3134433
:103CC0003B61FB681A6B3B691A60FB683A691A63CF
:103CD0007B6901337B61FB685B8C1A467B699A4286
:103CE000E6DCFB6800229A84FB6834331846FEF752
:103CF00011FF002318461C37BD4690BD7401021009
:103D0000ECFF0110F0FB011080B58EB000AFF86041
:103D1000B9607A603B60FB68002B05D140F6E55244
:103D2000A849A94801F096F9FB68184601F03CFE45
:103D30000346062B05D040F6E652A249A34801F0FF
:103D400089F9BB68002B05D140F6E7529D49A04890
:103D500001F080F97B68002B05D140F6E8529949C3
:103D60009C4801F077F93B68002B4ED000F0AAF98F
:103D7000B86203F047FB786202F05EF90346002B5D
:103D800009D09049944801F021F840F6EB528D4952
:103D9000924801F05FF9BB6A012B09D1894990482B
:103DA00001F014F840F6EB5286498C4801F052F9C4
:103DB00003F028FB386202F0A9FA0346002B09D170
:103DC0008049884801F002F840F6EB527D4983486B
:103DD00001F040F903F016FBF86100F05FF90346CB
:103DE000002B09D07749804800F0F0FF40F6EB52F5
:103DF00074497A4801F02EF9F86903F007FB386A34
:103E000003F004FB786A03F001FB00233B6302F03C
:103E10007DFAB861754B1B68002B04D0734B1B688F
:103E2000FA681046984703F0EDFA7863FB689B8CBC
:103E3000002B5FD13B68002B5CD1786B03F0E6FA76
:103E40006FF00103BAE0BB696FF008021A633B68C8
:103E5000002B09D1786B03F0D9FABB696FF001022E
:103E60001A636FF00103A9E0FB6803F11400FB681B
:103E70005A7A3B6CB969FEF7CFFE78617B69002BFB
:103E800004D0786B03F0C2FA7B6997E03B68002BA3
:103E90000EDDFEF753FA3863BB6958333A4600210A
:103EA000184603F085F8BB695833184602F01CFF2A
:103EB000786B03F0ABFA01F009FFBB691B6B002BB9
:103EC00002D0BB691B6B79E003F09CFA78633B6816
:103ED000002B0FDDFEF732FA02463B6BD31A3B6331
:103EE0003B681A463B6BD31A3B603B68002B01DAF8
:103EF00000233B60FB689B8C002BA4D0FB689B6A73
:103F00003B613B691A68FB689A62FB68DA6A3B6945
:103F10009A4202D1FB680022DA62FB689B8C002B7C
:103F200005D0FB689B8C013B9AB2FB689A84786B46
:103F300003F06CFA3B695B68FB62FA6A7B689A4241
:103F400001D97B68FB623B690833FA6A1946B86895
:103F500000F062F903F056FA7863FB681A6B3B696C
:103F60001A60FB683A691A63FB6834331846FEF737
:103F700033FE0346002B14D1FB6834331846FEF79A
:103F8000ADFE786B03F042FA194B1B68002B04D08E
:103F9000174B1B68FA681046984701F097FEFB6ABA
:103FA0000CE0786B03F032FA114B1B68002B04D045
:103FB0000F4B1B68FA6810469847FB6A184638375B
:103FC000BD4680BD80010210ECFF0110FCFF011016
:103FD000B0000210C400021008FD0110C8FB01105F
:103FE00034FD01105CFD0110A4FC0110CC5200084E
:103FF000C852000880B586B002AFF860B9607A6038
:104000003B60022300933B687A68B968F868FFF761
:104010007BFE034618461037BD4680BD80B582B092
:1040200000AF03F0EFF978600A4B1B78DBB2013385
:10403000DAB2084B1A70084B1B68002B02D0064BF3
:104040001B689847786803F0E1F900BF0837BD4660
:1040500080BD00BF802F0008782F000880B582B097
:1040600000AF03F0CFF978600A4B1B68002B02D039
:10407000084B1B689847084B1B78DBB2013BDAB250
:10408000054B1A70786803F0C1F900BF0837BD46C8
:1040900080BD00BF7C2F0008802F000880B582B053
:1040A00000AF03F0AFF97860054B1B78FB707868C0
:1040B00003F0ACF9FB7818460837BD4680BD00BF59
:1040C000802F000880B400AF00231846BD465DF87D
:1040D000047B704780B483B000AF78607B68002BAE
:1040E00002DA7B685B427B607B680B2B02DD064B50
:1040F000DB6A03E0044A7B6852F8233018460C3729
:10410000BD465DF8047B7047E822000880B584B0A6
:1041100000AF78600023FB60FFF7C0FF0346002B71
:1041200003D00A4A7B6813600CE002F0EFF8F860F5
:10413000FB68002B03D1054A7B68136002E0FB6833
:104140007A681A631037BD4680BD00BF842F00080F
:1041500080B48BB000AFF860B9607A6000237B62F6
:10416000FB683B6200237B610023FB61BB68FB763D
:104170007B68032B44D9FB6803F00303002B3FD17A
:10418000FB68FB6100237B6208E007F114027B6A95
:104190001344FA7E1A707B6A01337B627B6A032BBD
:1041A000F3D916E0FB691A1DFA617A691A60FB6996
:1041B0001A1DFA617A691A60FB691A1DFA617A6937
:1041C0001A60FB691A1DFA617A691A607B68103BF4
:1041D0007B607B680F2BE5D807E0FB691A1DFA614D
:1041E0007A691A607B68043B7B607B68032BF4D898
:1041F000FB693B6204E03B6A5A1C3A62FA7E1A7021
:104200007B685A1E7A60002BF5D1FB6818462C3764
:10421000BD465DF8047B704780B48BB000AFF8609A
:10422000B9607A60FB687B62BB683B620023FB611C
:104230000023BB617B687B617B690F2B4DD93A6A98
:104240007B6A134303F00303002B46D17B6AFB61B7
:104250003B6ABB6122E0FB691A1DFA61BA69111D54
:10426000B96112681A60FB691A1DFA61BA69111DF9
:10427000B96112681A60FB691A1DFA61BA69111DE9
:10428000B96112681A60FB691A1DFA61BA69111DD9
:10429000B96112681A607B69103B7B617B690F2BE7
:1042A000D9D80AE0FB691A1DFA61BA69111DB96112
:1042B00012681A607B69043B7B617B69032BF1D830
:1042C000FB697B62BB693B6207E07B6A5A1C7A62CE
:1042D0003A6A511C396212781A707B695A1E7A61E7
:1042E000002BF2D1FB6818462C37BD465DF8047BE5
:1042F000704700BF80B487B000AFF860B9607A60E3
:10430000FB687B61BB683B613A697B699A4226D254
:104310003A697B681A447B699A4220D97A697B683A
:1043200013447B613A697B6813443B6109E07B6914
:10433000013B7B613B69013B3B613B691A787B69CF
:104340001A707B685A1E7A60002BF0D10CE07B69F2
:104350005A1C7A613A69511C396112781A707B686B
:104360005A1E7A60002BF2D1FB6818461C37BD46F6
:104370005DF8047B704700BF80B582B002AF0B4888
:1043800000F024FD0A4800F021FD0A4B01930A4B7E
:104390000093012300220521084800F017FD08487A
:1043A00000F014FD00BFBD4680BD00BF5C020210DE
:1043B00068020210B0020210BC0202108C0202104D
:1043C000C802021080B485B000AF786039607B68A5
:1043D0001B683A68B3FBF2F102FB01F29B1AFB6027
:1043E0007B681A683B68B2FBF3F27B681A60FB6873
:1043F00018461437BD465DF8047B704780B485B01D
:1044000000AF78600023FB600EE0FA6813469B0063
:1044100013445B0018467B681B68591C7A6811605E
:104420001B780344303BFB607B681B681B78303B88
:10443000092BEAD9FB6818461437BD465DF8047BA2
:10444000704700BF90B593B000AFF860B9607A6074
:104450003B60002387F83B30002387F8473007F1A3
:1044600010032022002118461AF03CFD3B6E7B63AE
:1044700000233B6300233B640023FB63FB6DFB6372
:104480007B6E03F04003002B01D0A34B00E0A34B55
:104490003B637B6E03F01003002B03D07B6E23F095
:1044A00001037B667B6E03F00103002B01D03023F8
:1044B00000E0202387F83B30002387F847307B6EED
:1044C00003F00203002B42D0BB6D682B04D06C2B91
:1044D0000FD04C2B0DD016E07B681BB2002B1CDAE2
:1044E0002D2387F847307B689BB25B429BB27B6091
:1044F00013E07B68002B12DA2D2387F847307B68A6
:104500005B427B600BE07B68002B0ADA2D2387F887
:1045100047307B685B427B6003E000BF02E000BF86
:1045200000E000BF97F847302D2B10D07B6E03F0D2
:104530000403002B03D02B2387F8473007E07B6E62
:1045400003F00803002B02D0202387F847307B6E4E
:1045500003F02003002B0FD03B68022B02D03B68F6
:10456000102B03D1FB6B023BFB6305E03B68082B80
:1045700002D1FB6B013BFB6300233B647B68002B98
:104580001BD13B6C5A1C3A6407F148021344302299
:1045900003F8382C14E03C6C631C3B643B1D396809
:1045A0001846FFF70FFF03461A463B6B13441A7871
:1045B00007F14803234403F8382C7B68002BEAD129
:1045C0003A6C3B6E9A4201DD3B6C3B66FA6B3B6E8C
:1045D000D31AFB637B6E03F01103002B19D197F8FC
:1045E0004730002B10D0FB6B002B0DDDFB6B013B2C
:1045F000FB6309E0FA68BB689A4202D2FB6820229A
:104600001A70FB680133FB60FB6B5A1EFA63002BC8
:10461000F0DC97F84730002B0DD0FA68BB689A425F
:1046200003D2FB6897F847201A70FB6B013BFB63D2
:10463000FB680133FB607B6E03F02003002B43D04B
:104640003B68022B14D1FA68BB689A4202D2FB681D
:1046500030221A70FB680133FB60FA68BB689A422B
:1046600002D2FB6862221A70FB680133FB602BE008
:104670003B68082B0AD1FA68BB689A4202D2FB68F1
:1046800030221A70FB680133FB601DE03B68102B81
:104690001AD1FA68BB689A4202D2FB6830221A70BB
:1046A000FB680133FB60FA68BB689A4209D27B6EF3
:1046B00003F04003002B01D0582200E07822FB6871
:1046C0001A70FB680133FB607B6E03F01003002B54
:1046D0001BD10AE0FA68BB689A4203D2FB6897F8DC
:1046E0003B201A70FB680133FB60FB6B5A1EFA63B8
:1046F000002BEFDC09E0FA68BB689A4202D2FB6843
:1047000030221A70FB680133FB603B6E5A1E3A661A
:104710003A6C9342EFDC11E064030210780302105C
:10472000FA68BB689A4206D207F110023B6C134448
:104730001A78FB681A70FB680133FB603B6C5A1EE9
:104740003A64002B0DDD7B6B002BE9D109E0FA68A0
:10475000BB689A4202D2FB6820221A70FB680133C0
:10476000FB60FB6B5A1EFA63002BF0DCFB681846FB
:104770004C37BD4690BD00BF80B592B004AFF86025
:10478000B9607A603B6000237B6300233B630023B6
:10479000FB620023BB6200237B620023FB740023C7
:1047A0003B620023FB770023BB7700237B7700234A
:1047B000BB6100237B61FB68BB62FA68BB68134482
:1047C0007B627A6AFB689A4280F087824FF0FF33FF
:1047D0007B627A6AFB68D31ABB607EE27B681B78D7
:1047E000252B0BD0BA6A7B6A9A4203D27B681A786F
:1047F000BB6A1A70BB6A0133BB626BE20023BB77F2
:104800007B6801337B607B681B782D2B04D1BB7FD9
:1048100043F01003BB77F3E77B681B782B2B04D1A5
:10482000BB7F43F00403BB77EAE77B681B78202B50
:1048300004D1BB7F43F00803BB77E1E77B681B78BB
:10484000232B04D1BB7F43F02003BB77D8E77B68E1
:104850001B78302B04D1BB7F43F00103BB77CFE73C
:1048600000BF4FF0FF33BB617B681B78303B092BE7
:1048700005D83B1D1846FFF7C1FDB86115E07B6800
:104880001B782A2B11D17B6801337B603B681A1D92
:104890003A601B68BB61BB69002B06DABB695B42EF
:1048A000BB61BB7F43F01003BB774FF0FF337B61ED
:1048B0007B681B782E2B1ED17B6801337B607B6865
:1048C0001B78303B092B05D83B1D1846FFF796FD9A
:1048D00078610BE07B681B782A2B07D17B6801335A
:1048E0007B603B681A1D3A601B687B617B69002B0B
:1048F00001DA00237B6100237B777B681B78682BC0
:1049000003D07B681B786C2B05D17B681B787B7789
:104910007B6801337B600A23FB777B681B78253B30
:10492000532B00F2888101A252F823F0FD4B0010B6
:10493000374C0010374C0010374C0010374C00102B
:10494000374C0010374C0010374C0010374C00101B
:10495000374C0010374C0010374C0010374C00100B
:10496000374C0010374C0010374C0010374C0010FB
:10497000374C0010374C0010374C0010374C0010EB
:10498000374C0010374C0010374C0010374C0010DB
:10499000374C0010374C0010374C0010374C0010CB
:1049A000374C0010374C0010374C0010374C0010BB
:1049B000374C0010374C0010374C0010374C0010AB
:1049C000374C0010374C0010374C0010374C00109B
:1049D000374C0010374C0010374C0010374C00108B
:1049E000374C0010374C0010374C0010374C00107B
:1049F000374C0010374C00101F4C0010374C001083
:104A0000374C0010374C0010374C0010374C00105A
:104A1000374C0010374C0010374C0010374C00104A
:104A2000134C00107D4A00102D4C0010374C001024
:104A3000374C0010374C0010374C00102D4C001034
:104A4000374C0010374C0010374C0010374C00101A
:104A5000374C0010194C0010B14B0010374C0010AF
:104A6000374C0010EB4A0010374C0010734C00100C
:104A7000374C0010374C0010274C0010BB7F03F060
:104A80001003002B10D109E0BA6A7B6A9A4202D265
:104A9000BB6A20221A70BB6A0133BB62BB69013B4F
:104AA000BB61BB69002BEFDC3B681A1D3A601B68D9
:104AB000FB74BA6A7B6A9A4202D2BB6AFA7C1A70A9
:104AC000BB6A0133BB6209E0BA6A7B6A9A4202D2CE
:104AD000BB6A20221A70BB6A0133BB62BB69013B0F
:104AE000BB61BB69002BEFDCF4E03B681A1D3A6048
:104AF0001B683B623B6A002B01D1854B3B62002364
:104B0000FB6202E0FB6A0133FB62FA6ABB699A420C
:104B100005D0FB6A3A6A13441B78002BF2D17B69FB
:104B2000002B05DDFA6A7B699A4201DD7B69FB6235
:104B3000BB7F03F01003002B10D109E0BA6A7B6A37
:104B40009A4202D2BB6A20221A70BB6A0133BB624E
:104B5000BB695A1EBA61FA6A9342EFDC00233B63D9
:104B600010E0BA6A7B6A9A4203D23B6A1A78BB6A3F
:104B70001A70BB6A0133BB623B6A01333B623B6B19
:104B800001333B633A6BFB6A9A42EADB09E0BA6A9B
:104B90007B6A9A4202D2BB6A20221A70BB6A013336
:104BA000BB62BB695A1EBA61FA6A9342EFDC91E0BC
:104BB000BB69B3F1FF3F0CD10823BB61BB69023372
:104BC000BB61BB7F43F02003BB77BB7F43F0010396
:104BD000BB773B681A1D3A601B6819467B7FBA7F1A
:104BE00003927A690292BA690192009310230A46ED
:104BF000796AB86AFFF726FCB8626BE0BA6A7B6A2A
:104C00009A4202D2BB6A25221A70BB6A0133BB6288
:104C100060E00223FB772DE00823FB772AE0BB7FCF
:104C200043F04003BB771023FB7723E0BB7F43F0C7
:104C30000203BB771DE0BA6A7B6A9A4202D2BB6A62
:104C400025221A70BB6A0133BB627B681B78002B7C
:104C50000BD0BA6A7B6A9A4203D27B681A78BB6A25
:104C60001A70BB6A0133BB6234E07B68013B7B6036
:104C700030E000BF7B7F6C2B05D13B681A1D3A608A
:104C80001B687B6316E07B7F682B0ED13B681A1D87
:104C90003A601B689BB27B63BB7F03F00203002B6F
:104CA00008D07B6B1BB27B6304E03B681A1D3A6043
:104CB0001B687B63F97F7B7FBA7F03927A690292DC
:104CC000BA69019200930B467A6B796AB86AFFF76A
:104CD000B9FBB8627B6801337B607B681B78002B73
:104CE0007FF47CADBB68002B0BD0BA6A7B6A9A421A
:104CF00003D2BB6A00221A7003E07B6A013B0022E8
:104D00001A70BA6AFB68D31A18463837BD4680BD98
:104D1000F40202100CB480B584B000AF7860396042
:104D20000023FB6007F11C03BB60BB68BA693968EC
:104D30007868FFF721FDF860FB6818461037BD461C
:104D4000BDE8804002B0704780B400AF034B1B68E1
:104D50001846BD465DF8047B704700BF882F0008E9
:104D600080B584B000AF7860124B1B68FB60786838
:104D7000FDF7FAFBB860BA68FB689A4201D10023DC
:104D800013E0BB68002B0FD00A4B1B68002B04D02C
:104D9000084B1B681846FDF7CDFC4321B868FDF7AA
:104DA0002BFC044ABB681360FB6818461037BD46ED
:104DB00080BD00BF882F000880B483B000AF78604A
:104DC00000BF0C37BD465DF8047B70470FB480B55B
:104DD00082B000AF00237B6007F114033B603B68A7
:104DE0003A697F211048FFF7C7FC03467B607B6868
:104DF0007F2B01D97F237B600C4B1B68002B03D1D9
:104E00000948FFF7D9FF06E0084B18687B68064A97
:104E10000021FDF721FD7B6818460837BD46BDE837
:104E2000804004B0704700BFC42F0008882F0008DE
:104E300080B500AF012203490348FEF7A9F900BF7E
:104E400080BD00BFFC020210942F000880B500AFA7
:104E500001F05CFA0346002B06D04FF0FF31044806
:104E6000FEF792FB034600E00023184680BD00BF1A
:104E7000942F000880B582B000AF78607B68002B6B
:104E800005D040F21F620849084800F0E3F801F03D
:104E90003DFA0346002B02D00548FEF785FB00BF14
:104EA0000837BD4680BD00BFA003021004030210F6
:104EB000942F000880B485B000AFF860B9607A60C4
:104EC000FB68002B04D00D4B1B68DA69FB681A6085
:104ED000BB68002B04D0094B1B681A6ABB681A60B8
:104EE0007B68002B04D0054B1B685A6A7B681A60EC
:104EF00000BF1437BD465DF8047B7047C02F000823
:104F000080B584B000AF786039607B68073323F0E8
:104F10000703FB603B6823F00703BB60BA68FB68CC
:104F20009A4205D84FF4D0620A490B4800F092F833
:104F3000BA68FB68D31A1A467968084800F02AF95B
:104F40000246074B1A60FFF773FF00BF1037BD46DC
:104F500080BD00BF8C03021014030210FC0202107B
:104F6000C02F000880B584B000AF7860FFF76EFFF7
:104F7000F8600C4B1B687968184600F08DF9B86032
:104F8000F868FFF777FF084B1B68002B04D0064B2F
:104F90001B687968B8689847BB6818461037BD46E3
:104FA00080BD00BFC02F00088C2F000880B584B0E2
:104FB00000AF786039607B683A6802FB03F31846FB
:104FC000FFF7D0FFF860FB68002B08D07B683A68D9
:104FD00002FB03F31A460021F868FFF7B9F8FB68F3
:104FE00018461037BD4680BD80B584B000AF7860EC
:104FF0000C4B1B68002B03D00A4B1B687868984742
:105000007B68002B09D0FFF721FFF860786800F07B
:1050100079FAF868FFF72EFF00E000BF1037BD46B1
:1050200080BD00BF902F000880B586B000AFF8604B
:10503000B9607A60FFF70AFF78617A68B968F86842
:10504000FFF738FF7869FFF715FF00BF1837BD4637
:1050500080BD00BF80B586B000AFF860B9607A60EF
:105060000023FB750C4B1B68002B0BD17B68BA68C7
:10507000F9680A48FFF7AAFE00BFFB7DDBB2002BF0
:10508000FBD005E0044B1B687A68B968F86898475C
:1050900000BF1837BD4680BDC05200082C03021067
:1050A00080B584B000AF786039607B689A6A3B68ED
:1050B0009A4204D9832234493448FFF7CBFF7B68F6
:1050C000DA6A3B689A4204D884222F493048FFF7B5
:1050D000C1FF7B689A6A3B685B681344FB603A686F
:1050E000FB689A4223D0FB681B6803F00103002B86
:1050F0001DD17B68DA6AFB689A4218D07B681A6B0C
:10510000FB689A4202D17B683A681A63FB68002206
:105110001A60FB685A683B685A607B689A6AFB6849
:105120005B6813443A687968896A521A9A607B68A6
:105130009A6A3B689B681344BB60BA683B689A42B2
:105140001ED0BB681B6803F00103002B18D17B68DD
:105150001A6B3B689A4202D17B68BA681A633B6853
:1051600000221A603B685A68BB685A607B689A6A7A
:105170003B685B681344BA687968896A521A9A6016
:1051800000BF1037BD4680BDCC070210B00302102F
:10519000D403021080B58AB000AFF860B9607A60BD
:1051A000BB68073323F007037B627B6A38333B62BB
:1051B0003B6A073323F00703FB61BA687B6813443B
:1051C00023F00703BB61BB69202B54D9BB69A3F152
:1051D00020023B6A9A424ED3BA69FB69D31A203B3C
:1051E0007B6138220021786AFEF7B2FF7B6AFA6899
:1051F0000C21184600F080FA7B6A254A5A617B6AC6
:10520000FA699A617B6A7A69DA617B6A7A695A63B8
:10521000FA697B6A9A627B6A9B6A3B617B6A23F0CC
:1052200001023B691A607B6A5B6B03F110023B6908
:105230005A603B6900229A607B6A9A6A3B695B68A4
:105240001A447B6ADA627B6ADB6A7A6A42F001029C
:105250001A607B6ADB6A7A6A526B10325A607B6A28
:10526000DB6A7A6A526B10329A607B6A9A6A7B6A4E
:105270001A637B6A08E0B968BA687B6813441A4607
:105280000448FFF7A3FD002318462837BD4680BD1C
:10529000040402100C04021080B588B000AF7860DE
:1052A00039603B68002B01D1002317E17B68002B9C
:1052B00005D140F21F128B498B48FFF7CBFE7B686C
:1052C000184600F071FB03460C2B05D04FF490728A
:1052D00084498648FFF7BEFE7B68184600F046FB0F
:1052E0000346002B05D140F221127E498048FFF78A
:1052F000B1FE7B68BB613B68073323F007033B606B
:105300003B680F2B01D810233B60BB695A6B3B688D
:105310009A4201D20023E1E0BB691B6B1A46BB69CC
:105320009B6AD31AFB61D0E0BB699A6AFB6913449C
:105330007B617B691B6803F00103002B40F0BF8099
:105340007B695A68FB69D31AA3F110023B689A4241
:10535000C0F0B5807B695A68FB69D31AA3F11002CB
:105360003B6820339A4239D3FA693B6813441033BF
:105370003B61BB699A6A3B691344FB60BB6923F0DC
:105380000102FB681A607B695A68FB685A60FB6817
:10539000FA699A607B693A695A60FB685A68BB6926
:1053A0005B6B10339A4206D0BB699A6AFB685B68F4
:1053B00013443A699A60BB691A6A3B68134403F163
:1053C0001002BB691A62BB695A6ABB691B6A9A42BE
:1053D0001AD2BB691A6ABB695A6215E0BB691A6ABC
:1053E0007B695B687969B869806A091A5B1A1A4433
:1053F000BB691A62BB695A6ABB691B6A9A4203D2CB
:10540000BB691A6ABB695A62BB6943F001027B69D6
:105410001A60BB691A6B7B699A4228D107E0BB69A5
:105420009A6ABB691B6B5B681A44BB691A63BB69E8
:105430001B6B1B6803F00103002B05D0BB691A6BC3
:10544000BB69DB6A9A42EAD1BB691A6BBB69DB6A4A
:105450009A420CD0BB691B6B1B6803F00103002B45
:1054600005D04FF4C3721F492248FFF7F3FD7A6954
:105470003B6813441033BA69D26A934205D94FF49A
:10548000C47218491C48FFF7E5FD7B69103303F02F
:105490000703002B05D040F2891212491748FFF785
:1054A000D9FD7B6903F00703002B05D04FF4C572CB
:1054B0000C491348FFF7CEFD7B6910330EE0BB6942
:1054C0009A6AFB6913445B68FB61BB695A6B3B6872
:1054D000D21AFB699A42BFF427AF0023184620373F
:1054E000BD4680BDD80702104804021058040210BF
:1054F00094040210BC0402100C0502105C0502109A
:10550000A805021080B584B000AF78607B68002BDE
:1055100000F083807B6803F00703002B05D040F286
:105520000B2240494048FFF795FD7B68103BFB602C
:10553000FB681B6823F00103BB60BB68002B05D12F
:1055400040F2112237493948FFF784FDFB681B6898
:1055500003F00103002B05D140F2122231493448F7
:10556000FFF778FDBB68184600F01EFA03460C2BC7
:1055700005D040F213222B492E48FFF76BFDBB6884
:10558000184600F0F3F90346002B05D14FF40572DD
:1055900024492948FFF75EFDBB689A6A7B689A42F6
:1055A00004D8BB68DA6A7B689A4205D840F21622B2
:1055B0001C492248FFF74EFDBB689A6AFB685B688E
:1055C00013441B6823F001031A46BB689A4205D0B6
:1055D00040F2172213491A48FFF73CFDBB6823F03D
:1055E0000102FB681A60BB681A6BFB689A4202D919
:1055F000BB68FA681A63BB681A6AFB68B968896A8B
:105600005B1A1946FB685B68CB1A1A44BB681A62BE
:10561000F968B868FFF744FD00E000BF1037BD46E9
:1056200080BD00BFE8070210D805021078060210FE
:1056300090060210A0060210E806021020070210D1
:105640009407021080B483B000AF786039607B6843
:105650001B683A685A607B681A683B681A607B6806
:105660003A681A603B687A685A6000BF0C37BD46DA
:105670005DF8047B704700BF80B483B000AF7860F2
:105680007B681B687A6852685A607B685B687A68D6
:1056900012681A607B687A685A607B685A687B680F
:1056A0001A6000BF0C37BD465DF8047B704700BF31
:1056B00080B485B000AF0346FB710023FB600FE0B0
:1056C0000C4AFB681B0113441B78FA799A4204D1F7
:1056D000FB681B01074A134406E0FB680133FB60CB
:1056E000FB680A2BECDD002318461437BD465DF835
:1056F000047B70471823000880B588B000AFF860BD
:105700000B467A60FB720023FB61FB7A1846FFF7B9
:10571000CFFFB861BB69002B05D14FF4B7722349A5
:105720002348FFF797FC00F043FCBB695B68FB6113
:105730000FE0FB690C3B7B617A69FB689A4205D1FB
:1057400040F27D1219491B48FFF784FCFB691B6876
:10575000FB61BB691A1DFB699A42EAD100F040FC6B
:10576000FB7A63F07F03DAB2FB681A72FB680822E7
:105770007968184619F070FE0F4B1B68002B03D098
:105780000D4B1B68F868984701F03CFE3861BB6917
:105790001A1DFB680C3319461046FFF753FF386992
:1057A00001F034FE00BF2037BD4680BD8C080210DA
:1057B000F8070210100802104430000880B584B0C9
:1057C00000AF78607B68002B05D140F2AD120F4925
:1057D0000F48FFF73FFC0F4B1B68002B03D00D4B0E
:1057E0001B68786898477B6800221A7201F00AFEED
:1057F000F8607B680C331846FFF73EFFF86801F04D
:1058000005FE00BF1037BD4680BD00BF9C080210DA
:10581000200802104830000880B586B000AF03466B
:105820003960FB7101F0EEFD7861FEF737FC03464D
:10583000002B09D029492A48FFF7C8FA40F2D112B3
:1058400026492848FFF706FC786901F0DFFDFB795F
:105850001846FFF72DFF38613B69002B05D140F258
:10586000D5121E492048FFF7F5FB3B69DB68184657
:10587000FFF778FBF860FB68002B01D1002329E0DB
:105880003B69DB681A460021F868FEF761FCFB689B
:10589000FA791A72FB6800225A72FB68082239688A
:1058A000184619F0D9FD114B1B68002B03D00F4B84
:1058B0001B68F868984701F0A5FDB8603B691A1DA0
:1058C000FB680C3319461046FFF7BCFEB86801F0C0
:1058D0009DFDFB6818461837BD4680BDB008021014
:1058E000340802105C080210F80702104430000867
:1058F00080B584B000AF78607B68002B05D140F2A2
:10590000122216491648FFF7A5FB7B681B7A5BB28B
:10591000002B05DA40F2132210491248FFF79AFBD8
:10592000114B1B68002B03D00F4B1B6878689847FE
:105930007B6800221A7201F065FDF8607B680C3309
:105940001846FFF799FEF86801F060FD7868FFF7E8
:105950004BFB00BF1037BD4680BD00BFC40802101E
:1059600020080210600802104830000880B582B09C
:1059700000AF78607B68002B05D140F235220849E2
:105980000848FFF767FB7B681B7A5BB2002B01DAE4
:10599000012300E0002318460837BD4680BD00BF44
:1059A000D80802102008021080B582B000AF7860DD
:1059B0007B68002B05D14FF4127206490648FFF7A9
:1059C00049FB7B681B7A03F07F03DBB2184608377C
:1059D000BD4680BDF40802102008021080B586B0D4
:1059E00000AF78600B46FB7000233B6100237B61B6
:1059F0000023FB60FB781846FFF75AFEF8607B68CF
:105A0000002B02D0FB68002B01D1002335E001F010
:105A1000F9FCB860FEF742FB0346002B09D0194998
:105A20001948FFF7D3F940F2662216491748FFF7E5
:105A300011FBB86801F0EAFC00F0BAFAFB685B6899
:105A40007B6112E07B690C3B3B613B690822796812
:105A5000184619F0B1FC0346002B03D100F0C0FA40
:105A60003B690AE07B691B687B61FB681A1D7B69E7
:105A70009A42E7D100F0B4FA002318461837BD4621
:105A800080BD00BF08090210340802105C08021033
:105A900080B483B000AF78607B687A685A607B68B6
:105AA0005A687B681A6000BF0C37BD465DF8047BFE
:105AB000704700BF80B483B000AF786039607B6806
:105AC0001B683A685A607B681A683B681A607B6892
:105AD0003A681A603B687A685A6000BF0C37BD4666
:105AE0005DF8047B704700BF80B483B000AF78607E
:105AF00039607B685B683A681A607B685A683B6803
:105B00005A607B683A685A603B687A681A6000BFDE
:105B10000C37BD465DF8047B704700BF80B483B08E
:105B200000AF78607B681B687A6852685A607B684F
:105B30005B687A6812681A607B687A685A607B686A
:105B40005A687B681A6000BF0C37BD465DF8047B5D
:105B5000704700BF80B483B000AF78607B681A687C
:105B60007B689A420CBF01230023DBB218460C3736
:105B7000BD465DF8047B704780B584B000AF7860A7
:105B80007B68002B04D15E221C491D48FFF762FA96
:105B90007B689B6A1B78232B11D17B68DB691A46D3
:105BA0007B689B6A9A420AD97B68DB691A467B68E4
:105BB0009B6A19467B68DB6A0B449A420BD97B6867
:105BC00019461048FFF702F901F01CFCF860FB6869
:105BD000002BFCD10DE07B68DB691A467B689B6A71
:105BE00020339A4205D87B6819460748FFF7EEF83C
:105BF000FFE700BF1037BD4680BD00BF800902101F
:105C0000180902102C0902104809021080B584B04E
:105C100000AF78600A4B1B68184601F00BFF034683
:105C2000013BFB60074AFB6852F83330143BBB6012
:105C30007B68FA681A60BB6818461037BD4680BD9D
:105C4000D4530008D052000880B582B000AF0D4B8D
:105C500000221A8000237B6009E07B68DB000A4A8F
:105C600013441846FFF714FF7B6801337B607B68A1
:105C70001F2BF2DD054B00221A6000BF0837BD461E
:105C800080BD00BF4C300008D0520008D45300083B
:105C900080B582B000AF3B461846FFF7B7FF78608B
:105CA000094A7B681360786800F04AF97B68032230
:105CB00083F834207B681C33184601F0F0FB00BFEA
:105CC0000837BD4680BD00BF5030000880B586B0A3
:105CD00000AF01F097FBF8605D4BB3F90030002B8B
:105CE00040F0AE805B4B1B68002B00F0A9800023C6
:105CF0003B613B1D1846FFF789FF7861564B1B68D7
:105D000093F8343003F00703032B2CD1524B1B685C
:105D100093F835301A467B689A4203D24E4B1B6883
:105D20007B6115E04C4B1B6893F835301A467B6855
:105D30009A420BD1484B1B6893F8343003F00803A8
:105D4000002B03D1444B1B687B6101E001233B61C5
:105D5000414B1B68404A126892F8342022F0080236
:105D6000D2B283F834203C4B1B687A699A4252D0F5
:105D70007B68DAB2394B1A70374B1B68BB60364A06
:105D80007B691360364B1B68002B04D0344B1B68B7
:105D90007969B86898473B69002B02D0B86800F071
:105DA00065F8786900F0CCF87B6993F834305BB221
:105DB00023F007035BB243F003035BB2DAB27B6903
:105DC00083F834207869FFF7D7FE264B1B78DBB2C7
:105DD000002B15D1244B1B68002B03D0224B1B68D2
:105DE000B8689847BB681C331A467B691C33194650
:105DF000104601F00EFBF86801F008FB00BF23E03D
:105E0000BB681C3318467B691C3319467B69BA682A
:105E100001F0FFFA14E0104B1B68184600F090F8F0
:105E20000D4B1B680C4A126892F8342052B222F0D3
:105E3000070252B242F0030252B2D2B283F83420C7
:105E4000F86801F0E3FA00BF1837BD4680BD00BF17
:105E50004C300008D453000850300008D0530008DC
:105E600054300008802F00085830000880B584B0F6
:105E700000AF78607B68002B05D14FF4B4722B49DA
:105E80002B48FFF7E7F801F0BDFAF860294B1B68D3
:105E90007A689A420ED17B6893F834305BB223F073
:105EA00007035BB243F003035BB2DAB27B6883F8AB
:105EB000342034E07B6893F834305BB223F007037E
:105EC0005BB243F002035BB2DAB27B6883F8342042
:105ED0007B6893F8343003F00803002B0CD07B6808
:105EE00093F83530DB00144A1A447B6814331946A2
:105EF0001046FFF7F9FD0BE07B6893F83530DB00C7
:105F00000D4A1A447B68143319461046FFF7D2FD38
:105F10007B689A6B094B1B681343084A1360F86847
:105F200001F074FA00BF1037BD4680BD9809021019
:105F30001809021050300008D0520008D45300084D
:105F400080B584B000AF78607B68002B05D14FF43A
:105F5000CE7213491348FFF77DF801F053FAF86049
:105F60007B6814331846FFF7D9FD7B6893F835300A
:105F7000DB000D4A13441846FFF7ECFD0346002BE7
:105F800007D07B689B6BDA43084B1B681340074ABA
:105F90001360F86801F03AFA00BF1037BD4680BDC3
:105FA000B409021018090210D0520008D453000896
:105FB00080B582B000AF01F025FA7860074BB3F9E5
:105FC00000309BB201339BB21AB2044B1A8078683E
:105FD00001F01CFA00BF0837BD4680BD4C300008F8
:105FE00080B582B000AF01F00DFA7860104BB3F9C4
:105FF00000309BB2013B9BB21AB20D4B1A800C4B86
:10600000B3F90030002B0CDC094B00221A807868B1
:1060100001F0FCF9074B1B68002B05D0FFF756FE7B
:1060200002E0786801F0F2F900BF0837BD4680BD94
:106030004C3000085030000880B400AF044BB3F976
:1060400000309BB21846BD465DF8047B704700BF28
:106050004C30000880B483B000AF78607B687A6809
:106060005A607B685A687B681A6000BF0C37BD466F
:106070005DF8047B704700BF80B483B000AF7860E8
:106080007B681B687A6852685A607B685B687A68CC
:1060900012681A607B687A685A607B685A687B6805
:1060A0001A6000BF0C37BD465DF8047B704700BF27
:1060B00080B582B000AF00F029F9786001F0A2F954
:1060C00038607868FFF73CFF7B685833184600F06B
:1060D000C3FD7B68012283F834207868FCF760FCFC
:1060E000386801F093F9FFF7F1FD00BF0837BD46AE
:1060F00080BD00BF80B584B000AF78607B68FB6076
:10610000FB68002B04D1872219491A48FEF7A2FF29
:10611000FB6893F8343003F00403002B04D1882289
:1061200013491548FEF796FFF868FFF73DFC034654
:10613000012B04D089220E491048FEF78BFF01F095
:1061400061F9B860FB686FF001021A63FB681433F1
:106150001846FFF791FFF868FFF788FEB86801F06E
:1061600055F9FFF7B3FD00BF1037BD4680BD00BF36
:10617000300C0210D0090210E4090210280A0210A3
:1061800080B586B002AFF860B9607A603B60FB68AA
:1061900014331846FFF75EFFFB687A681A62FB68E3
:1061A0003A685A62FB68BA699A62FB68FA69DA620D
:1061B000FB68986AFB68DB6A1A462321FDF7C8FF73
:1061C000FB68186AFB68596AFB689A6AFB68DB6AB5
:1061D000043B1A442C4B01F0B7F90246FB68DA6124
:1061E00097F820301F2B04D9C22228492848FEF7EF
:1061F00031FFFB6897F8202083F83620FB6897F87A
:10620000202083F83520FB6800229A63FB683C332A
:106210001846FFF71FFFFB6800225A64FB68002244
:106220009A64FB68002283F84C20FB687A6A1A653E
:10623000FB687A6A5A65FB6800221A63FB680022D1
:1062400083F83420FB680022C3F88420FB68002216
:10625000C3F88820FB6803F15800F9680023019314
:1062600000230093FB680B4A00F0B6FC0A4B1B6846
:10627000002B03D0084B1B68F8689847002318468A
:106280001037BD4680BD00BFB1600010400C021049
:106290006C0A0210F56000106430000880B588B008
:1062A00004AFF860B9607A603B60FB68002B05D1F1
:1062B0004FF4A27212491348FEF7CCFEBB69002BC3
:1062C00005D140F245120E490F48FEF7C3FEBA68E9
:1062D0000121F868FFF710FA7B6A039397F82030E2
:1062E0000293FB690193BB6900933B687A68B968C4
:1062F000F868FFF745FF034618461037BD4680BDD6
:10630000500C0210D0090210900A021080B400AFA5
:10631000034B1B681846BD465DF8047B704700BF01
:106320005030000880B582B000AF78607B68002BE9
:1063300005D140F277121C491C48FEF78BFE7B68A2
:1063400093F8343003F00703002B05D04FF4BC72F0
:1063500015491748FEF77EFE7868FFF725FB0346D0
:10636000012B05D040F279120F491248FEF772FE58
:106370007B6893F835301A46012393401A467B68B0
:106380009A637B68042283F83420786800F00CFB61
:10639000FFF7BCFF0346002B01D0FFF797FC00235B
:1063A00018460837BD4680BD600C0210D0090210A7
:1063B000A80A0210280A021080B584B000AF7860E5
:1063C0007B68002B05D14FF4D1722E492E48FEF781
:1063D00041FE7868FFF7E8FA0346012B05D040F24A
:1063E000A31228492948FEF735FE7868FFF7BEFA60
:1063F0000346002B05D14FF4D27222492448FEF700
:1064000029FE7B6893F8343003F00703012B01D198
:10641000002332E07B6893F8343003F00703002B4D
:1064200002D07868FFF78CFD00F0ECFFF8607B6825
:106430005833184600F010FC7B68012283F83420A2
:106440007B685B6C002B11D07B685B6C1846FFF798
:10645000ABFA0346032B09D17B685B6CBB607968A0
:10646000B868FCF7CDFE7B6800225A647868FCF7B8
:1064700097FAF86800F0CAFF002318461037BD46A7
:1064800080BD00BF740C0210D0090210280A02104F
:10649000E00A021080B58AB004AFF860B9607A6093
:1064A0003B60F9680120FFF7B7F978617B69002B41
:1064B00001D100231BE03868FEF754FD38613B69C9
:1064C000002B04D17869FFF713FA00230FE07B6AF1
:1064D000039397F8203002933B6801933B69009344
:1064E0007B68BA68F9687869FFF74AFE7B691846E5
